root@comp3124-Winter2023:~# tcpdump -XX -i eth0 -c 10
tcpdump: verbose output suppressed, use -v or -vv for full protocol decode
listening on eth0, link-type EN10MB (Ethernet), capture size 262144 bytes
07:02:03.941116 IP ec2-13-229-147-193.ap-southeast-1.compute.amazonaws.com > comp3124-Winter2023: ICMP echo request, id 12, seq 3672, length 16
        0x0000:  827f e8a1 1c65 fe00 0000 0101 0800 4500  .....e........E.
        0x0010:  0024 0091 4000 e601 e609 0de5 93c1 8ac5  .$..@...........
        0x0020:  81d2 0800 52d9 000c 0e58 174c 3714 db7e  ....R....X.L7..~
        0x0030:  6ce3 0000 0000 0000 0000 0000            l...........
07:02:03.941156 IP comp3124-Winter2023 > ec2-13-229-147-193.ap-southeast-1.compute.amazonaws.com: ICMP echo reply, id 12, seq 3672, length 16
        0x0000:  fe00 0000 0101 827f e8a1 1c65 0800 4500  ...........e..E.
        0x0010:  0024 3914 0000 4001 9387 8ac5 81d2 0de5  .$9...@.........
        0x0020:  93c1 0000 5ad9 000c 0e58 174c 3714 db7e  ....Z....X.L7..~
        0x0030:  6ce3                                     l.
07:02:03.943100 IP comp3124-Winter2023.ssh > bras-base-toroon4215w-grc-65-184-147-240-6.dsl.bell.ca.59698: Flags [P.], seq 3407858014:3407858122, ack 2147075754, win 501, length 108
        0x0000:  fe00 0000 0101 827f e8a1 1c65 0800 4510  ...........e..E.
        0x0010:  0094 7583 4000 4006 0f9f 8ac5 81d2 b893  ..u.@.@.........
        0x0020:  f006 0016 e932 cb1f c95e 7ff9 c6aa 5018  .....2...^....P.
        0x0030:  01f5 b5b8 0000 216b c5e4 221c 3999 ab37  ......!k..".9..7
        0x0040:  ba00 225b b350 e638 80ba 708e d144 e110  .."[.P.8..p..D..
        0x0050:  2425 5cef d77c 8116 dd4c fdc6 39b3 65b3  $%\..|...L..9.e.
        0x0060:  fea1 630b 1e4c c8be 2e4e 5591 58e7 717c  ..c..L...NU.X.q|
        0x0070:  c9f3 abf2 66d8 d69f 09b5 9c65 e7fa 03af  ....f......e....
        0x0080:  6d42 8207 8011 be49 ce68 4568 1482 f5e7  mB.....I.hEh....
        0x0090:  0fbe 6313 752b 0d3c 2e7b 8fa4 3894 d83f  ..c.u+.<.{..8..?
        0x00a0:  f325                                     .%
07:02:03.943253 IP comp3124-Winter2023.ssh > bras-base-toroon4215w-grc-65-184-147-240-6.dsl.bell.ca.59698: Flags [P.], seq 108:252, ack 1, win 501, length 144
        0x0000:  fe00 0000 0101 827f e8a1 1c65 0800 4510  ...........e..E.
        0x0010:  00b8 7584 4000 4006 0f7a 8ac5 81d2 b893  ..u.@.@..z......
        0x0020:  f006 0016 e932 cb1f c9ca 7ff9 c6aa 5018  .....2........P.
        0x0030:  01f5 b5dc 0000 65b9 4aa3 09d2 939a 0237  ......e.J......7
        0x0040:  85a0 8ff4 b910 12bb 44c3 78a6 b693 2a53  ........D.x...*S
        0x0050:  4916 3a16 4472 87e8 a0eb 1f62 2115 5e64  I.:.Dr.....b!.^d
        0x0060:  cf48 9e74 e689 9b6d 6264 513e db85 0516  .H.t...mbdQ>....
        0x0070:  6025 7075 986e 30e2 7325 39a0 6a5d d42b  `%pu.n0.s%9.j].+
        0x0080:  06c4 72e7 aece 550c 85be 2933 450d 4b05  ..r...U...)3E.K.
        0x0090:  77cd ecb8 2665 3643 bf97 2115 716a a547  w...&e6C..!.qj.G
        0x00a0:  4b98 5e9a b267 f93e 18fd c0e5 bbf3 589b  K.^..g.>......X.
        0x00b0:  47f3 9c93 9ae1 200a cfcd 199e a6e6 cd3b  G..............;
        0x00c0:  3b62 32e6 713e                           ;b2.q>
07:02:03.943309 IP comp3124-Winter2023.ssh > bras-base-toroon4215w-grc-65-184-147-240-6.dsl.bell.ca.59698: Flags [P.], seq 252:288, ack 1, win 501, length 36
        0x0000:  fe00 0000 0101 827f e8a1 1c65 0800 4510  ...........e..E.
        0x0010:  004c 7585 4000 4006 0fe5 8ac5 81d2 b893  .Lu.@.@.........
        0x0020:  f006 0016 e932 cb1f ca5a 7ff9 c6aa 5018  .....2...Z....P.
        0x0030:  01f5 b570 0000 ac2d 20a8 386f 3904 8904  ...p...-..8o9...
        0x0040:  015d 320d 46ce f299 0282 294d d27d e2d2  .]2.F.....)M.}..
        0x0050:  b634 3bf8 7772 d412 8bb4                 .4;.wr....
07:02:03.944621 IP comp3124-Winter2023.43234 > 67.207.67.2.domain: 36641+ [1au] PTR? 210.129.197.138.in-addr.arpa. (57)
        0x0000:  fe00 0000 0101 827f e8a1 1c65 0800 4500  ...........e..E.
        0x0010:  0055 2272 4000 4011 84bd 8ac5 81d2 43cf  .U"r@.@.......C.
        0x0020:  4302 a8e2 0035 0041 93bb 8f21 0100 0001  C....5.A...!....
        0x0030:  0000 0000 0001 0332 3130 0331 3239 0331  .......210.129.1
        0x0040:  3937 0331 3338 0769 6e2d 6164 6472 0461  97.138.in-addr.a
        0x0050:  7270 6100 000c 0001 0000 2902 0000 0000  rpa.......).....
        0x0060:  0000 00                                  ...
07:02:03.944682 IP comp3124-Winter2023.53392 > 67.207.67.2.domain: 43226+ [1au] PTR? 210.129.197.138.in-addr.arpa. (57)
        0x0000:  fe00 0000 0101 827f e8a1 1c65 0800 4500  ...........e..E.
        0x0010:  0055 8d96 4000 4011 1999 8ac5 81d2 43cf  .U..@.@.......C.
        0x0020:  4302 d090 0035 0041 93bb a8da 0100 0001  C....5.A........
        0x0030:  0000 0000 0001 0332 3130 0331 3239 0331  .......210.129.1
        0x0040:  3937 0331 3338 0769 6e2d 6164 6472 0461  97.138.in-addr.a
        0x0050:  7270 6100 000c 0001 0000 2902 0000 0000  rpa.......).....
        0x0060:  0000 00                                  ...
07:02:03.944723 IP comp3124-Winter2023.38290 > 67.207.67.2.domain: 60640+ [1au] PTR? 210.129.197.138.in-addr.arpa. (57)
        0x0000:  fe00 0000 0101 827f e8a1 1c65 0800 4500  ...........e..E.
        0x0010:  0055 4990 4000 4011 5d9f 8ac5 81d2 43cf  .UI.@.@.].....C.
        0x0020:  4302 9592 0035 0041 93bb ece0 0100 0001  C....5.A........
        0x0030:  0000 0000 0001 0332 3130 0331 3239 0331  .......210.129.1
        0x0040:  3937 0331 3338 0769 6e2d 6164 6472 0461  97.138.in-addr.a
        0x0050:  7270 6100 000c 0001 0000 2902 0000 0000  rpa.......).....
        0x0060:  0000 00                                  ...
07:02:03.945956 IP 67.207.67.2.domain > comp3124-Winter2023.53392: 43226 NXDomain 0/1/1 (124)
        0x0000:  827f e8a1 1c65 fe00 0000 0101 0800 4500  .....e........E.
        0x0010:  0098 4f18 0000 3c11 9bd4 43cf 4302 8ac5  ..O...<...C.C...
        0x0020:  81d2 0035 d090 0084 4635 a8da 8183 0001  ...5....F5......
        0x0030:  0000 0001 0001 0332 3130 0331 3239 0331  .......210.129.1
        0x0040:  3937 0331 3338 0769 6e2d 6164 6472 0461  97.138.in-addr.a
        0x0050:  7270 6100 000c 0001 c010 0006 0001 0000  rpa.............
        0x0060:  0416 0037 036e 7331 0c64 6967 6974 616c  ...7.ns1.digital
        0x0070:  6f63 6561 6e03 636f 6d00 0a68 6f73 746d  ocean.com..hostm
        0x0080:  6173 7465 72c0 1064 0e65 8200 002a 3000  aster..d.e...*0.
        0x0090:  000e 1000 093a 8000 0007 0800 0029 0200  .....:.......)..
        0x00a0:  0000 0000 0000                           ......
07:02:03.946025 IP 67.207.67.2.domain > comp3124-Winter2023.38290: 60640 NXDomain 0/1/1 (124)
        0x0000:  827f e8a1 1c65 fe00 0000 0101 0800 4500  .....e........E.
        0x0010:  0098 5a6c 0000 3c11 9080 43cf 4302 8ac5  ..Zl..<...C.C...
        0x0020:  81d2 0035 9592 0084 3d2d ece0 8183 0001  ...5....=-......
        0x0030:  0000 0001 0001 0332 3130 0331 3239 0331  .......210.129.1
        0x0040:  3937 0331 3338 0769 6e2d 6164 6472 0461  97.138.in-addr.a
        0x0050:  7270 6100 000c 0001 c010 0006 0001 0000  rpa.............
        0x0060:  0416 0037 036e 7331 0c64 6967 6974 616c  ...7.ns1.digital
        0x0070:  6f63 6561 6e03 636f 6d00 0a68 6f73 746d  ocean.com..hostm
        0x0080:  6173 7465 72c0 1064 0e65 8200 002a 3000  aster..d.e...*0.
        0x0090:  000e 1000 093a 8000 0007 0800 0029 0200  .....:.......)..
        0x00a0:  0000 0000 0000                           ......
10 packets captured
72 packets received by filter
34 packets dropped by kernel
root@comp3124-Winter2023:~#